:020000040000fa
:080000000002040000000000f2
:020000040000fa
:04000800c80200002a
:020000040000fa
:04000c00c802000026
:020000040000fa
:04001000c802000022
:020000040000fa
:04001400c80200001e
:020000040000fa
:04001800c80200001a
:020000040000fa
:04001c00c802000016
:020000040000fa
:04002000c802000012
:020000040000fa
:04002400c80200000e
:020000040000fa
:04002800c80200000a
:020000040000fa
:04002c00c802000006
:020000040000fa
:04003000c802000002
:020000040000fa
:04003400c8020000fe
:020000040000fa
:04003800c8020000fa
:020000040000fa
:04003c00c8020000f6
:020000040000fa
:04004000c8020000f2
:020000040000fa
:04004400c8020000ee
:020000040000fa
:04004800c8020000ea
:020000040000fa
:04004c00c8020000e6
:020000040000fa
:04005000c8020000e2
:020000040000fa
:04005400c8020000de
:020000040000fa
:04005800c8020000da
:020000040000fa
:04005c00c8020000d6
:020000040000fa
:04006000c8020000d2
:020000040000fa
:04006400c8020000ce
:020000040000fa
:04006800c8020000ca
:020000040000fa
:04006c00c8020000c6
:020000040000fa
:04007000c8020000c2
:020000040000fa
:04007400c8020000be
:020000040000fa
:04007800c8020000ba
:020000040000fa
:04007c00c8020000b6
:020000040000fa
:04008000c8020000b2
:020000040000fa
:04008400c8020000ae
:020000040000fa
:04008800c8020000aa
:020000040000fa
:04008c00c8020000a6
:020000040000fa
:04009000c8020000a2
:020000040000fa
:04009400c80200009e
:020000040000fa
:04009800c80200009a
:020000040000fa
:04009c00c802000096
:020000040000fa
:0400a000c802000092
:020000040000fa
:0400a400c80200008e
:020000040000fa
:0400a800c80200008a
:020000040000fa
:0400ac00c802000086
:020000040000fa
:0400b000c802000082
:020000040000fa
:0400b400c80200007e
:020000040000fa
:0400b800c80200007a
:020000040000fa
:0400bc00c802000076
:020000040000fa
:0400c000c802000072
:020000040000fa
:0400c400c80200006e
:020000040000fa
:0400c800c80200006a
:020000040000fa
:0400cc00c802000066
:020000040000fa
:0400d000c802000062
:020000040000fa
:0400d400c80200005e
:020000040000fa
:0400d800c80200005a
:020000040000fa
:0400dc00c802000056
:020000040000fa
:0400e000c802000052
:020000040000fa
:0400e400c80200004e
:020000040000fa
:0400e800c80200004a
:020000040000fa
:0400ec00c802000046
:020000040000fa
:0400f000c802000042
:020000040000fa
:0400f400c80200003e
:020000040000fa
:0400f800c80200003a
:020000040000fa
:0400fc00c802000036
:020000040000fa
:04010000c802000031
:020000040000fa
:04010400c80200002d
:020000040000fa
:04010800c802000029
:020000040000fa
:04010c00c802000025
:020000040000fa
:04011000c802000021
:020000040000fa
:04011400c80200001d
:020000040000fa
:04011800c802000019
:020000040000fa
:04011c00c802000015
:020000040000fa
:04012000c802000011
:020000040000fa
:04012400c80200000d
:020000040000fa
:04012800c802000009
:020000040000fa
:04012c00c802000005
:020000040000fa
:04013000c802000001
:020000040000fa
:04013400c8020000fd
:020000040000fa
:04013800c8020000f9
:020000040000fa
:04013c00c8020000f5
:020000040000fa
:04014000c8020000f1
:020000040000fa
:04014400c8020000ed
:020000040000fa
:04014800c8020000e9
:020000040000fa
:04020800c802000028
:020000040000fa
:04020c00c802000024
:020000040000fa
:04021000c802000020
:020000040000fa
:04021400c80200001c
:020000040000fa
:04021800c802000018
:020000040000fa
:04021c00c802000014
:020000040000fa
:04022000c802000010
:020000040000fa
:04022400c80200000c
:020000040000fa
:04022800c802000008
:020000040000fa
:04022c00c802000004
:020000040000fa
:04023000c802000000
:020000040000fa
:04023400c8020000fc
:020000040000fa
:04023800c8020000f8
:020000040000fa
:04023c00c8020000f4
:020000040000fa
:04024000c8020000f0
:020000040000fa
:04024400c8020000ec
:020000040000fa
:04024800c8020000e8
:020000040000fa
:04024c00c8020000e4
:020000040000fa
:04025000c8020000e0
:020000040000fa
:04025400c8020000dc
:020000040000fa
:04025800c8020000d8
:020000040000fa
:04025c00c8020000d4
:020000040000fa
:04026000c8020000d0
:020000040000fa
:04026400c8020000cc
:020000040000fa
:04026800c8020000c8
:020000040000fa
:04026c00c8020000c4
:020000040000fa
:04027000c8020000c0
:020000040000fa
:04027400c8020000bc
:020000040000fa
:04027800c8020000b8
:020000040000fa
:04027c00c8020000b4
:020000040000fa
:04028000c8020000b0
:020000040000fa
:04028400c8020000ac
:020000040000fa
:04028800c8020000a8
:020000040000fa
:04028c00c8020000a4
:020000040000fa
:04029000c8020000a0
:020000040000fa
:04029400c80200009c
:020000040000fa
:04029800c802000098
:020000040000fa
:04029c00c802000094
:020000040000fa
:0402a000c802000090
:020000040000fa
:0402a400c80200008c
:020000040000fa
:0402a800c802000088
:020000040000fa
:0402ac00c802000084
:020000040000fa
:0402b000c802000080
:020000040000fa
:0402b400c80200007c
:020000040000fa
:0402b800c802000078
:020000040000fa
:0402bc00c802000074
:020000040000fa
:0402c000c802000070
:020000040000fa
:0402c400c80200006c
:020000040000fa
:0402c800c802000068
:020000040000fa
:0402cc00c802000064
:020000040000fa
:0402d000c802000060
:020000040000fa
:0402d400c80200005c
:020000040000fa
:0402d800c802000058
:020000040000fa
:0402dc00c802000054
:020000040000fa
:0402e000c802000050
:020000040000fa
:0402e400c80200004c
:020000040000fa
:0402e800c802000048
:020000040000fa
:0402ec00c802000044
:020000040000fa
:0402f000c802000040
:020000040000fa
:0402f400c80200003c
:020000040000fa
:0402f800c802000038
:020000040000fa
:0402fc00c802000034
:020000040000fa
:04030000c80200002f
:020000040000fa
:04030400c80200002b
:020000040000fa
:04030800c802000027
:020000040000fa
:04030c00c802000023
:020000040000fa
:04031000c80200001f
:020000040000fa
:04031400c80200001b
:020000040000fa
:04031800c802000017
:020000040000fa
:04031c00c802000013
:020000040000fa
:04032000c80200000f
:020000040000fa
:04032400c80200000b
:020000040000fa
:04032800c802000007
:020000040000fa
:04032c00c802000003
:020000040000fa
:04033000c8020000ff
:020000040000fa
:04033400c8020000fb
:020000040000fa
:04033800c8020000f7
:020000040000fa
:04033c00c8020000f3
:020000040000fa
:04034000c8020000ef
:020000040000fa
:04034400c8020000eb
:020000040000fa
:04034800c8020000e7
:020000040000fa
:100400000f8020000e7f22000e01880000000000f7
:10041000000020000000e000020032000001200087
:1004200020028800140007005b0007000000e000c5
:1004300003003a0000002000010020000200370005
:100440000000200001002000810f70000100320038
:1004500014000700000020000000e000020032004d
:10046000000002000000000012070200000000006f
:100470000040da000000fe004440a9000002200015
:100480000000e0000300320000002000a00188000e
:100490004440a800000006008a1f78008b1f7800e7
:1004a0000000060091018800800478000000eb0045
:1004b0001a003700e284440032a0b4009905ba0063
:1004c000e284440032a0b4009906ba00e2844400f9
:1004d00032a0b4000006eb00476fde00fd07b2005b
:1004e000636ce10003003a00ebff07000000eb0043
:1004f0000a003700606ce10004003a00005deb0088
:100500008b05e900fdff3e00040037006168e10053
:10051000010032000086eb000b00070019c7ba008b
:100520001905ba000e04e00003003a000a00e000da
:10053000e0ff3a0000000600fe07b2009e018800be
:100540008a047800f5ff3700395dba008b05e900b1
:100550000c003200295dba008b05e900080032006a
:100560000c00e00003003a00e284440032a0b40032
:10057000f5ff370019ddba008b05e900faff3a00f4
:100580008904e800e184440032a0b40000000600c1
:100590000040da000000fe00000005008000780046
:1005a000010178003104e000fdff3a000000510035
:0405b0000000060041
:020000040000fa
:1005b4002020000020200000202000002020000037
:1005c4002020000020200000202000002020000027
:1005d40000000000486500006c6c00006f20000003
:1005e400576f0000726c00006421000000000000de
:020000040000fa
:1005f4000000fa00213a8000f08f2f000080600094
:10060400203a88000080eb0060198800c842a900e5
:10061400c862a9001622ef00d0092000a0108800ab
:100624008a40a90017e2a8000421ef00001b200063
:10063400100888008460a90005e1a8000080fa0081
:10064400000006000400fa00100798000000eb0008
:10065400000f780002003700e00107001e0fe800d9
:100664001e0090009e007800808f5000faff350035
:100674000080fa00000006000400fa001007980049
:100684000000eb00000f780002003700d0010700e3
:100694001e0fe8001e0090009e007800808f50001e
:1006a400faff35000080fa00000006000200fa009c
:1006b400004f78001602a80000000000b01080006f
:1006c400610060000000e000fcff3a008a40a900dd
:1006d400c007200090108800000000005004800033
:1006e400640060000000e000fcff32008a40a900c2
:1006f4001222ef000000000050048000640060003b
:100704000000e000fcff32008a40a9001e00fb004c
:100714009010880000000000500480006400600015
:100724000000e000fcff32008a40a9001642a80045
:1007340000000000b0108000640060000000e000d1
:10074400fcff3a000080fa00000006000000fa00f6
:1007540020032000bbff070080c3b300d3ff0700c2
:1007640010002000b7ff070090c3b300cfff0700bd
:1007740010002000b3ff070040c1b300cbff070007
:1007840010002000afff070000c7b300c7ff070039
:1007940010002000abff0700e0c5b300c3ff070053
:1007a40010002000a7ff0700c0c6b300bfff07006a
:1007b400800c2000a3ff070080c3b300bbff070029
:1007c400100020009fff0700c0c0b300b7ff070060
:1007d400100020009bff070010c0b300b3ff070008
:1007e4002000200097ff07000080fa0000000600a8
:1007f4000200fa00004f78001602a8000000000072
:10080400b0108000610060000000e000fcff3a00ce
:100814008a40a900c0072000901088000000000052
:1008240050048000640060000000e000fcff32001f
:100834008a40a900000c20009010880000000000ed
:1008440050048000640060000000e000fcff3200ff
:100854008a40a9001e00fb009010880000000000e0
:1008640050048000640060000000e000fcff3200df
:100874008a40a9001642a80000000000b0108000c1
:10088400640060000000e000fcff3a000080fa0011
:10089400000006000400fa00204798003147980041
:1008a4002e4090000004e000140035002e4090001b
:1008b400e14f500013003c003e4090000004e00073
:1008c400120035003e409000e74f500011003c00fc
:1008d40000c8b300004f78003e4090001e4f7000e7
:1008e4002e409000e14f500001003a001e64a00029
:1008f4001e4078006dff070007003700000000006d
:10090400050037000000000003003700000000006d
:1009140001003700000000000080fa00000006001b
:100924000400fa0020479800314798002e409000b8
:100934000004e000090035002e409000e14f500013
:1009440006003c003e4090000004e0000300350037
:100954003e409000e74f50000200340000c2b30054
:100964000900370000c8b300004f78003e409000f3
:100974001e4f70002e409000e14f500001003a00dd
:100984001e64a0001e4078000080fa0000000600eb
:100994000a00fa00400798001602a80000000000b0
:1009a400b0108000610060000000e000fcff3a002d
:1009b4008a40a900c00720009010880000000000b1
:1009c40050048000640060000000e000fcff32007e
:1009d4008a40a9000000eb00000f78000000eb0043
:1009e400100798000000eb00200798000000eb00bf
:1009f400000f7800650037001e007800e70f5000f4
:100a04002c003a000008200090108800000000002c
:100a140050048000640060000000e000fcff32002d
:100a24008a40a9002e009000804078001e009000ab
:100a340000407800baff0700604798006e409000bd
:100a44000000fb00901088000000000050048000ab
:100a5400640060000000e000fcff32008a40a9004e
:100a64000004200090108800000000005004800062
:100a7400640060000000e000fcff32008a40a9002e
:100a84001e007800ce0090000080400010407800e6
:100a94000000fb009010880000000000500480005b
:100aa400640060000000e000fcff32008a40a900fe
:100ab4002b00370000082000901088000000000080
:100ac40050048000640060000000e000fcff32007d
:100ad4008a40a9002e009000804078001e009000fb
:100ae400004078008eff0700704798007e40900019
:100af4000000fb00901088000000000050048000fb
:100b0400640060000000e000fcff32008a40a9009d
:100b1400000c2000901088000000000050048000a9
:100b2400640060000000e000fcff32008a40a9007d
:100b34001e007800ce009000008040001040780035
:100b44000000fb00901088000000000050048000aa
:100b5400640060000000e000fcff32008a40a9004d
:100b64002e0090000000e800200798002e0090005e
:100b7400e80f500004003a000000eb002007980042
:100b840010002000100798001e0fe8001e007800d7
:100b9400e70f500098ff34001642a8000000000040
:100ba400b0108000640060000000e000fcff3a0028
:100bb4000080fa00000006001200fa00881f780086
:100bc400000f98000e08900073fe0700e80f500015
:100bd40003003e000e0890006dff0700350037004b
:100be4000000eb00000f78000000eb00000f78001d
:100bf4002a0037000000eb00100798000000eb000b
:100c0400200798009e007800110798000e00370016
:100c14001e0090008e0890000080400090407800f4
:100c2400680147002e009000000041000148780050
:100c34002e0090000000e800200798001e0090009d
:100c44000000e800100798001e017800e800410049
:100c54001e009000808f5000edff3c0068004700ac
:100c64004bff07000000eb00300798000000eb008a
:100c74003007980004003700580007003e00900039
:100c84000000e80030079800be009000301f2000ec
:100c9400808f5000f8ff34001e0fe8001e04780017
:100ca4000e0890003cfe070068005000800f5400be
:100cb400d0ff36004f0478000080fa0000000600e0
:100cc4001200fa00000f98000e08900032fe070090
:100cd400e80f500003003e000e0890002cff0700b0
:100ce400340037000000eb00000f78000e0890007d
:100cf40029fe07000000e900000f78002a003700f1
:100d04000000eb00100798007000200020079800f6
:100d14009e007800110798000e0037001e00900016
:100d24008e089000008040009040780068014700e1
:100d34002e00900000004100014878002e00900031
:100d44000000e900200798001e0090000000e90060
:100d5400100798001e017800e80051001e00900062
:100d6400808f5000edff35006800470008ff070042
:100d74000000eb00300798000000eb0030079800fb
:100d840004003700150007003e0090000000e80052
:100d940030079800be009000301f2000808f500064
:100da400f8ff34001e0fe9001e007800e60f500023
:100db400d3ff3c000080fa00000006000000fa00a7
:100dc400a02d2800f2fe07000080fa0000000600b3
:100dd400390609000000000000000600793e090001
:100de4000000000000000600c422ec00040009001a
:100df40000000000c422ef0005000900000000000c
:100e040000000600c422ec000900090000000000f4
:100e1400c422ef00020009000000000000000600e8
:100e24000000fa00f2fd070048fe0700e3ff070098
:100e3400c02e280060ff0700c02e2800a0ff070076
:040e4400fbff370079
:00000001FF
