:020000040000fa
:080000000002040000000000f2
:020000040000fa
:04000800c80200002a
:020000040000fa
:04000c00c802000026
:020000040000fa
:04001000c802000022
:020000040000fa
:04001400c80200001e
:020000040000fa
:04001800c80200001a
:020000040000fa
:04001c00c802000016
:020000040000fa
:04002000c802000012
:020000040000fa
:04002400c80200000e
:020000040000fa
:04002800c80200000a
:020000040000fa
:04002c00c802000006
:020000040000fa
:04003000c802000002
:020000040000fa
:04003400c8020000fe
:020000040000fa
:04003800c8020000fa
:020000040000fa
:04003c00c8020000f6
:020000040000fa
:04004000c8020000f2
:020000040000fa
:04004400c8020000ee
:020000040000fa
:04004800c8020000ea
:020000040000fa
:04004c00c8020000e6
:020000040000fa
:04005000c8020000e2
:020000040000fa
:04005400c8020000de
:020000040000fa
:04005800c8020000da
:020000040000fa
:04005c00c8020000d6
:020000040000fa
:04006000c8020000d2
:020000040000fa
:04006400c8020000ce
:020000040000fa
:04006800c8020000ca
:020000040000fa
:04006c00c8020000c6
:020000040000fa
:04007000c8020000c2
:020000040000fa
:04007400c8020000be
:020000040000fa
:04007800c8020000ba
:020000040000fa
:04007c00c8020000b6
:020000040000fa
:04008000c8020000b2
:020000040000fa
:04008400c8020000ae
:020000040000fa
:04008800c8020000aa
:020000040000fa
:04008c00c8020000a6
:020000040000fa
:04009000c8020000a2
:020000040000fa
:04009400c80200009e
:020000040000fa
:04009800c80200009a
:020000040000fa
:04009c00c802000096
:020000040000fa
:0400a000c802000092
:020000040000fa
:0400a400c80200008e
:020000040000fa
:0400a800c80200008a
:020000040000fa
:0400ac00c802000086
:020000040000fa
:0400b000c802000082
:020000040000fa
:0400b400c80200007e
:020000040000fa
:0400b800c80200007a
:020000040000fa
:0400bc00c802000076
:020000040000fa
:0400c000c802000072
:020000040000fa
:0400c400c80200006e
:020000040000fa
:0400c800c80200006a
:020000040000fa
:0400cc00c802000066
:020000040000fa
:0400d000c802000062
:020000040000fa
:0400d400c80200005e
:020000040000fa
:0400d800c80200005a
:020000040000fa
:0400dc00c802000056
:020000040000fa
:0400e000c802000052
:020000040000fa
:0400e400c80200004e
:020000040000fa
:0400e800c80200004a
:020000040000fa
:0400ec00c802000046
:020000040000fa
:0400f000c802000042
:020000040000fa
:0400f400c80200003e
:020000040000fa
:0400f800c80200003a
:020000040000fa
:0400fc00c802000036
:020000040000fa
:04010000c802000031
:020000040000fa
:04010400c80200002d
:020000040000fa
:04010800c802000029
:020000040000fa
:04010c00c802000025
:020000040000fa
:04011000c802000021
:020000040000fa
:04011400c80200001d
:020000040000fa
:04011800c802000019
:020000040000fa
:04011c00c802000015
:020000040000fa
:04012000c802000011
:020000040000fa
:04012400c80200000d
:020000040000fa
:04012800c802000009
:020000040000fa
:04012c00c802000005
:020000040000fa
:04013000c802000001
:020000040000fa
:04013400c8020000fd
:020000040000fa
:04013800c8020000f9
:020000040000fa
:04013c00c8020000f5
:020000040000fa
:04014000c8020000f1
:020000040000fa
:04014400c8020000ed
:020000040000fa
:04014800c8020000e9
:020000040000fa
:04020800c802000028
:020000040000fa
:04020c00c802000024
:020000040000fa
:04021000c802000020
:020000040000fa
:04021400c80200001c
:020000040000fa
:04021800c802000018
:020000040000fa
:04021c00c802000014
:020000040000fa
:04022000c802000010
:020000040000fa
:04022400c80200000c
:020000040000fa
:04022800c802000008
:020000040000fa
:04022c00c802000004
:020000040000fa
:04023000c802000000
:020000040000fa
:04023400c8020000fc
:020000040000fa
:04023800c8020000f8
:020000040000fa
:04023c00c8020000f4
:020000040000fa
:04024000c8020000f0
:020000040000fa
:04024400c8020000ec
:020000040000fa
:04024800c8020000e8
:020000040000fa
:04024c00c8020000e4
:020000040000fa
:04025000c8020000e0
:020000040000fa
:04025400c8020000dc
:020000040000fa
:04025800c8020000d8
:020000040000fa
:04025c00c8020000d4
:020000040000fa
:04026000c8020000d0
:020000040000fa
:04026400c8020000cc
:020000040000fa
:04026800c8020000c8
:020000040000fa
:04026c00c8020000c4
:020000040000fa
:04027000c8020000c0
:020000040000fa
:04027400c8020000bc
:020000040000fa
:04027800c8020000b8
:020000040000fa
:04027c00c8020000b4
:020000040000fa
:04028000c8020000b0
:020000040000fa
:04028400c8020000ac
:020000040000fa
:04028800c8020000a8
:020000040000fa
:04028c00c8020000a4
:020000040000fa
:04029000c8020000a0
:020000040000fa
:04029400c80200009c
:020000040000fa
:04029800c802000098
:020000040000fa
:04029c00c802000094
:020000040000fa
:0402a000c802000090
:020000040000fa
:0402a400c80200008c
:020000040000fa
:0402a800c802000088
:020000040000fa
:0402ac00c802000084
:020000040000fa
:0402b000c802000080
:020000040000fa
:0402b400c80200007c
:020000040000fa
:0402b800c802000078
:020000040000fa
:0402bc00c802000074
:020000040000fa
:0402c000c802000070
:020000040000fa
:0402c400c80200006c
:020000040000fa
:0402c800c802000068
:020000040000fa
:0402cc00c802000064
:020000040000fa
:0402d000c802000060
:020000040000fa
:0402d400c80200005c
:020000040000fa
:0402d800c802000058
:020000040000fa
:0402dc00c802000054
:020000040000fa
:0402e000c802000050
:020000040000fa
:0402e400c80200004c
:020000040000fa
:0402e800c802000048
:020000040000fa
:0402ec00c802000044
:020000040000fa
:0402f000c802000040
:020000040000fa
:0402f400c80200003c
:020000040000fa
:0402f800c802000038
:020000040000fa
:0402fc00c802000034
:020000040000fa
:04030000c80200002f
:020000040000fa
:04030400c80200002b
:020000040000fa
:04030800c802000027
:020000040000fa
:04030c00c802000023
:020000040000fa
:04031000c80200001f
:020000040000fa
:04031400c80200001b
:020000040000fa
:04031800c802000017
:020000040000fa
:04031c00c802000013
:020000040000fa
:04032000c80200000f
:020000040000fa
:04032400c80200000b
:020000040000fa
:04032800c802000007
:020000040000fa
:04032c00c802000003
:020000040000fa
:04033000c8020000ff
:020000040000fa
:04033400c8020000fb
:020000040000fa
:04033800c8020000f7
:020000040000fa
:04033c00c8020000f3
:020000040000fa
:04034000c8020000ef
:020000040000fa
:04034400c8020000eb
:020000040000fa
:04034800c8020000e7
:020000040000fa
:100400000f8020000e7f22000e01880000000000f7
:10041000000020000000e000020032000001200087
:1004200020028800140007005b0007000000e000c5
:1004300003003a0000002000010020000200370005
:100440000000200001002000810f70000100320038
:1004500014000700000020000000e000020032004d
:100460000000020000000000d604020000000000ae
:100470000040da000000fe004440a9000000200017
:100480000000e0000300320000002000a00188000e
:100490004440a800000006008a1f78008b1f7800e7
:1004a0000000060091018800800478000000eb0045
:1004b0001a003700e284440032a0b4009905ba0063
:1004c000e284440032a0b4009906ba00e2844400f9
:1004d00032a0b4000006eb00476fde00fd07b2005b
:1004e000636ce10003003a00ebff07000000eb0043
:1004f0000a003700606ce10004003a00005deb0088
:100500008b05e900fdff3e00040037006168e10053
:10051000010032000086eb000b00070019c7ba008b
:100520001905ba000e04e00003003a000a00e000da
:10053000e0ff3a0000000600fe07b2009e018800be
:100540008a047800f5ff3700395dba008b05e900b1
:100550000c003200295dba008b05e900080032006a
:100560000c00e00003003a00e284440032a0b40032
:10057000f5ff370019ddba008b05e900faff3a00f4
:100580008904e800e184440032a0b40000000600c1
:0c0590000040da000000fe000000050042
:020000040000fa
:10059c000000fa00213a8000f08f2f0000806000ec
:1005ac00203a8800f0ff290060198800e0ff2f0036
:1005bc0000168800c422ef000080fa00000006003c
:1005cc000c00fa0030079800410798005207980079
:1005dc000000eb00000f78000c003700be0090000c
:1005ec0000082000008060000000e00002003200e3
:1005fc002101070001003700180107003e009000a0
:10060c0000004000300798001e0fe8001e00780024
:10061c00e70f5000f1ff34000000eb0010079800ca
:10062c000e003700ce009000000820000080600013
:10063c000000e000020032000f010700010037004b
:10064c00060107004e009000000040004007980093
:10065c001e0090000000e800100798001e0090009b
:10066c00e70f5000efff34000000eb00200798006c
:10067c000e003700de0090000008200000806000b3
:10068c000000e00002003200fb0007000100370010
:10069c00f20007005e009000000040005007980038
:1006ac002e0090000000e800200798002e0090001b
:1006bc00e70f5000efff34000080fa000000060046
:1006cc000400fa00100798000000eb00000f7800ff
:1006dc0002003700de0007001e0fe8001e0090002d
:1006ec009e007800808f5000faff35000080fa00e1
:1006fc00000006000800fa00404798005147980097
:10070c00624798004e4090000080fb008000eb0098
:10071c00c001dd00020020005e4090000082fb0062
:10072c008002eb004828dd00c820de00810070004c
:10073c004820dd0000017100818171006e40900045
:10074c000080fb008000eb000000710081807100d4
:10075c00008fbe001e00be000080fa0000000600e4
:10076c000800fa0020079800310798000040eb00c1
:10077c00004f78000040eb00104798000040eb0061
:10078c00204798002e009000be0090004008de002c
:10079c00004f78002e009000be0090004809dd004c
:1007ac004800de0000007100c808de001047980009
:1007bc002e009000204798001e4078000080fa0020
:1007cc00000006000800fa00200798003107980086
:1007dc000040eb00004f78000040eb001047980001
:1007ec000040eb00204798002e009000be009000c7
:1007fc004008de00004f78002e009000be009000f4
:10080c004809dd004800de0000007100c808de0069
:10081c00104798002e009000204798001e40900032
:10082c000080fa00000006000800fa00200798007b
:10083c00310798000040eb00004f78000040eb00bf
:10084c00104798000040eb00204798002e009000c5
:10085c00be0090004008de00004f78002e00900093
:10086c00be0090004809dd004800de000000710069
:10087c00c808de00104798002e0090002047980012
:10088c002e4090000080fa00000006000400fa00e0
:10089c00889fbe00008fbe001e00be00e2ff070056
:1008ac008084fb001e00be00c6ff07000084fb0016
:1008bc001e00be00aaff07000080fb0009017800a3
:1008cc00880078003eff07004f04be000080fa004d
:1008dc00000006000200fa00004f78001ecfea006c
:1008ec0040c5b3009e40780080cf50000a003e0007
:1008fc001e80fb006300b900000178009e80fb00a5
:10090c00d0ff2f000088b90000007800f00fb00075
:10091c008000eb002aff070090cab3009e407800cd
:10092c0080cf50000e003e00b0cab3001e4f4000f6
:10093c009e80fb00d0ff2f000088b90000007800db
:10094c00f20f2000000141001e80fb006300b90083
:10095c0000007800800078000000eb0018ff070012
:10096c0061c5b3001ecf40009e80fb00d0ff2f005e
:10097c000088b90000007800f30f2000808141004e
:10098c001e80fb006300b900000078000001eb0042
:10099c00830078000aff07000080fa0000000600c0
:1009ac000400fa00fafe07000000eb00000f7800cc
:1009bc0002003700260007001e0fe800100320007d
:1009cc009e007800808f5000faff34000000eb008e
:1009dc0010079800080037005000200038ff07006f
:1009ec001e00900000407800baff07001e00900027
:1009fc000000e800100798009e009000e00f200017
:100a0c00808f5000f4ff3400d00f200010079800a6
:100a1c00080037005000200029ff07001e0090003e
:100a2c0000407800abff07001e0090000000e900ba
:100a3c00100798001e0090000000e000f5ff3c003d
:100a4c00e2ff370039060900000000000000060034
:100a5c00793e09000000000000000600c422ec00f2
:100a6c000400090000000000c422ef00050009008a
:100a7c000000000000000600c422ec000900090080
:100a8c0000000000c422ef0002000900000000007a
:040a9c000000060050
:020000040000fa
:020000040001f9
:0457f8000ff90000a5
:020000040000fa
:020000040001f9
:0457fc007f3f0000eb
:00000001FF
