:020000040000fa
:080000000002040000000000f2
:020000040000fa
:04000800e202000010
:020000040000fa
:04000c00e20200000c
:020000040000fa
:04001000e202000008
:020000040000fa
:04001400e202000004
:020000040000fa
:04001800e202000000
:020000040000fa
:04001c00e2020000fc
:020000040000fa
:04002000e2020000f8
:020000040000fa
:04002400e2020000f4
:020000040000fa
:04002800e2020000f0
:020000040000fa
:04002c00e2020000ec
:020000040000fa
:04003000e2020000e8
:020000040000fa
:04003400c8020000fe
:020000040000fa
:04003800e2020000e0
:020000040000fa
:04003c00e2020000dc
:020000040000fa
:04004000e2020000d8
:020000040000fa
:04004400e2020000d4
:020000040000fa
:04004800e2020000d0
:020000040000fa
:04004c00e2020000cc
:020000040000fa
:04005000e2020000c8
:020000040000fa
:04005400e2020000c4
:020000040000fa
:04005800e2020000c0
:020000040000fa
:04005c00e2020000bc
:020000040000fa
:04006000e2020000b8
:020000040000fa
:04006400e2020000b4
:020000040000fa
:04006800e2020000b0
:020000040000fa
:04006c00e2020000ac
:020000040000fa
:04007000e2020000a8
:020000040000fa
:04007400e2020000a4
:020000040000fa
:04007800e2020000a0
:020000040000fa
:04007c00e20200009c
:020000040000fa
:04008000e202000098
:020000040000fa
:04008400e202000094
:020000040000fa
:04008800e202000090
:020000040000fa
:04008c00e20200008c
:020000040000fa
:04009000e202000088
:020000040000fa
:04009400e202000084
:020000040000fa
:04009800e202000080
:020000040000fa
:04009c00e20200007c
:020000040000fa
:0400a000e202000078
:020000040000fa
:0400a400e202000074
:020000040000fa
:0400a800e202000070
:020000040000fa
:0400ac00e20200006c
:020000040000fa
:0400b000e202000068
:020000040000fa
:0400b400e202000064
:020000040000fa
:0400b800e202000060
:020000040000fa
:0400bc00e20200005c
:020000040000fa
:0400c000e202000058
:020000040000fa
:0400c400e202000054
:020000040000fa
:0400c800e202000050
:020000040000fa
:0400cc00e20200004c
:020000040000fa
:0400d000e202000048
:020000040000fa
:0400d400e202000044
:020000040000fa
:0400d800e202000040
:020000040000fa
:0400dc00e20200003c
:020000040000fa
:0400e000e202000038
:020000040000fa
:0400e400e202000034
:020000040000fa
:0400e800e202000030
:020000040000fa
:0400ec00e20200002c
:020000040000fa
:0400f000e202000028
:020000040000fa
:0400f400e202000024
:020000040000fa
:0400f800e202000020
:020000040000fa
:0400fc00e20200001c
:020000040000fa
:04010000e202000017
:020000040000fa
:04010400e202000013
:020000040000fa
:04010800e20200000f
:020000040000fa
:04010c00e20200000b
:020000040000fa
:04011000e202000007
:020000040000fa
:04011400e202000003
:020000040000fa
:04011800e2020000ff
:020000040000fa
:04011c00e2020000fb
:020000040000fa
:04012000e2020000f7
:020000040000fa
:04012400e2020000f3
:020000040000fa
:04012800e2020000ef
:020000040000fa
:04012c00e2020000eb
:020000040000fa
:04013000e2020000e7
:020000040000fa
:04013400e2020000e3
:020000040000fa
:04013800e2020000df
:020000040000fa
:04013c00e2020000db
:020000040000fa
:04014000e2020000d7
:020000040000fa
:04014400e2020000d3
:020000040000fa
:04014800e2020000cf
:020000040000fa
:04020800e20200000e
:020000040000fa
:04020c00e20200000a
:020000040000fa
:04021000e202000006
:020000040000fa
:04021400e202000002
:020000040000fa
:04021800e2020000fe
:020000040000fa
:04021c00e2020000fa
:020000040000fa
:04022000e2020000f6
:020000040000fa
:04022400e2020000f2
:020000040000fa
:04022800e2020000ee
:020000040000fa
:04022c00e2020000ea
:020000040000fa
:04023000e2020000e6
:020000040000fa
:04023400e2020000e2
:020000040000fa
:04023800e2020000de
:020000040000fa
:04023c00e2020000da
:020000040000fa
:04024000e2020000d6
:020000040000fa
:04024400e2020000d2
:020000040000fa
:04024800e2020000ce
:020000040000fa
:04024c00e2020000ca
:020000040000fa
:04025000e2020000c6
:020000040000fa
:04025400e2020000c2
:020000040000fa
:04025800e2020000be
:020000040000fa
:04025c00e2020000ba
:020000040000fa
:04026000e2020000b6
:020000040000fa
:04026400e2020000b2
:020000040000fa
:04026800e2020000ae
:020000040000fa
:04026c00e2020000aa
:020000040000fa
:04027000e2020000a6
:020000040000fa
:04027400e2020000a2
:020000040000fa
:04027800e20200009e
:020000040000fa
:04027c00e20200009a
:020000040000fa
:04028000e202000096
:020000040000fa
:04028400e202000092
:020000040000fa
:04028800e20200008e
:020000040000fa
:04028c00e20200008a
:020000040000fa
:04029000e202000086
:020000040000fa
:04029400e202000082
:020000040000fa
:04029800e20200007e
:020000040000fa
:04029c00e20200007a
:020000040000fa
:0402a000e202000076
:020000040000fa
:0402a400e202000072
:020000040000fa
:0402a800e20200006e
:020000040000fa
:0402ac00e20200006a
:020000040000fa
:0402b000e202000066
:020000040000fa
:0402b400e202000062
:020000040000fa
:0402b800e20200005e
:020000040000fa
:0402bc00e20200005a
:020000040000fa
:0402c000e202000056
:020000040000fa
:0402c400e202000052
:020000040000fa
:0402c800e20200004e
:020000040000fa
:0402cc00e20200004a
:020000040000fa
:0402d000e202000046
:020000040000fa
:0402d400e202000042
:020000040000fa
:0402d800e20200003e
:020000040000fa
:0402dc00e20200003a
:020000040000fa
:0402e000e202000036
:020000040000fa
:0402e400e202000032
:020000040000fa
:0402e800e20200002e
:020000040000fa
:0402ec00e20200002a
:020000040000fa
:0402f000e202000026
:020000040000fa
:0402f400e202000022
:020000040000fa
:0402f800e20200001e
:020000040000fa
:0402fc00e20200001a
:020000040000fa
:04030000e202000015
:020000040000fa
:04030400e202000011
:020000040000fa
:04030800e20200000d
:020000040000fa
:04030c00e202000009
:020000040000fa
:04031000e202000005
:020000040000fa
:04031400e202000001
:020000040000fa
:04031800e2020000fd
:020000040000fa
:04031c00e2020000f9
:020000040000fa
:04032000e2020000f5
:020000040000fa
:04032400e2020000f1
:020000040000fa
:04032800e2020000ed
:020000040000fa
:04032c00e2020000e9
:020000040000fa
:04033000e2020000e5
:020000040000fa
:04033400e2020000e1
:020000040000fa
:04033800e2020000dd
:020000040000fa
:04033c00e2020000d9
:020000040000fa
:04034000e2020000d5
:020000040000fa
:04034400e2020000d1
:020000040000fa
:04034800e2020000cd
:020000040000fa
:100400006f8020000e7f22000e0188000000000097
:10041000000020000000e000020032000001200087
:100420002002880014000700680007000000e000b8
:1004300003003a004037200001002000020037008e
:100440000000200001002000810f70000100320038
:1004500014000700000020000000e000020032004d
:1004600000000200000000001c0302000000000069
:100470000040da000000fe004440a9000000200017
:100480000000e0000300320000002000a00188000e
:100490004440a800000006008a1f78008b1f7800e7
:1004a0000000060091018800800478000000eb0045
:1004b0001a003700e284440032a0b4009905ba0063
:1004c000e284440032a0b4009906ba00e2844400f9
:1004d00032a0b4000006eb00476fde00fd07b2005b
:1004e000636ce10003003a00ebff07000000eb0043
:1004f0000a003700606ce10004003a00005deb0088
:100500008b05e900fdff3e00040037006168e10053
:10051000010032000086eb000b00070019c7ba008b
:100520001905ba000e04e00003003a000a00e000da
:10053000e0ff3a0000000600fe07b2009e018800be
:100540008a047800f5ff3700395dba008b05e900b1
:100550000c003200295dba008b05e900080032006a
:100560000c00e00003003a00e284440032a0b40032
:10057000f5ff370019ddba008b05e900faff3a00f4
:100580008904e800e184440032a0b40000000600c1
:10059000801f78003400f80000002000a0018800cf
:1005a0000000fa008460a900004080000000e8001c
:1005b000004088000080fa003400f9004f00780005
:1005c000004006000040da000000fe0000000500c8
:020000040000fa
:1005d0000000fa00213a8000f08f2f0000806000b8
:1005e000203a88000421ef00f0e72300100888007b
:1005f0000021ef0005e1a8008460a900210580002a
:10060000f0ff28000080600000e0a00020058800c6
:100610009460a8008200a9008400a9002105800040
:1006200080ff2f00008060006000b300200588007c
:100630000080fa00000006000400fa006000b80024
:10064000008fbe00e2ff07000000000020048000d1
:10065000610060000000e000fcff32000008800044
:100660006102b800004080008000eb0002e8230037
:100670000289b900020178006003b90086017800a0
:100680000301410003e823000300b8000101410019
:1006900082007800040040008580480010408800f7
:1006a000214088000021ef000028ef0010048000a6
:1006b000004078006140600011c0b30000c05000ed
:1006c000614060000080fb00610060001204800057
:1006d000e1ff2f008100610001007000100488001c
:0806e00000000000d9ff370003
:020000040000fa
:1006e80000080000060000000000000000000000f4
:020000040000fa
:020000040001f9
:0457f8002ff9000085
:020000040000fa
:020000040001f9
:0457fc007f3f0000eb
:00000001FF
