:020000040000fa
:080000000002040000000000f2
:020000040000fa
:040008004e030000a3
:020000040000fa
:04000c004e0300009f
:020000040000fa
:040010004e0300009b
:020000040000fa
:040014004e03000097
:020000040000fa
:040018004e03000093
:020000040000fa
:04001c004e0300008f
:020000040000fa
:040020004e0300008b
:020000040000fa
:040024004e03000087
:020000040000fa
:04002800e2020000f0
:020000040000fa
:04002c004e0300007f
:020000040000fa
:040030004e0300007b
:020000040000fa
:04003400c8020000fe
:020000040000fa
:040038004e03000073
:020000040000fa
:04003c004e0300006f
:020000040000fa
:040040004e0300006b
:020000040000fa
:040044004e03000067
:020000040000fa
:040048004e03000063
:020000040000fa
:04004c004e0300005f
:020000040000fa
:040050004e0300005b
:020000040000fa
:040054004e03000057
:020000040000fa
:040058004e03000053
:020000040000fa
:04005c004e0300004f
:020000040000fa
:040060004e0300004b
:020000040000fa
:040064004e03000047
:020000040000fa
:040068004e03000043
:020000040000fa
:04006c004e0300003f
:020000040000fa
:040070004e0300003b
:020000040000fa
:040074004e03000037
:020000040000fa
:040078004e03000033
:020000040000fa
:04007c004e0300002f
:020000040000fa
:040080004e0300002b
:020000040000fa
:040084004e03000027
:020000040000fa
:040088004e03000023
:020000040000fa
:04008c004e0300001f
:020000040000fa
:040090004e0300001b
:020000040000fa
:040094004e03000017
:020000040000fa
:040098004e03000013
:020000040000fa
:04009c004e0300000f
:020000040000fa
:0400a0004e0300000b
:020000040000fa
:0400a4004e03000007
:020000040000fa
:0400a8004e03000003
:020000040000fa
:0400ac004e030000ff
:020000040000fa
:0400b0004e030000fb
:020000040000fa
:0400b4004e030000f7
:020000040000fa
:0400b8004e030000f3
:020000040000fa
:0400bc004e030000ef
:020000040000fa
:0400c0004e030000eb
:020000040000fa
:0400c4004e030000e7
:020000040000fa
:0400c8004e030000e3
:020000040000fa
:0400cc004e030000df
:020000040000fa
:0400d0004e030000db
:020000040000fa
:0400d4004e030000d7
:020000040000fa
:0400d8004e030000d3
:020000040000fa
:0400dc004e030000cf
:020000040000fa
:0400e0004e030000cb
:020000040000fa
:0400e4004e030000c7
:020000040000fa
:0400e8004e030000c3
:020000040000fa
:0400ec004e030000bf
:020000040000fa
:0400f0004e030000bb
:020000040000fa
:0400f4004e030000b7
:020000040000fa
:0400f8004e030000b3
:020000040000fa
:0400fc004e030000af
:020000040000fa
:040100004e030000aa
:020000040000fa
:040104004e030000a6
:020000040000fa
:040108004e030000a2
:020000040000fa
:04010c004e0300009e
:020000040000fa
:040110004e0300009a
:020000040000fa
:040114004e03000096
:020000040000fa
:040118004e03000092
:020000040000fa
:04011c004e0300008e
:020000040000fa
:040120004e0300008a
:020000040000fa
:040124004e03000086
:020000040000fa
:040128004e03000082
:020000040000fa
:04012c004e0300007e
:020000040000fa
:040130004e0300007a
:020000040000fa
:040134004e03000076
:020000040000fa
:040138004e03000072
:020000040000fa
:04013c004e0300006e
:020000040000fa
:040140004e0300006a
:020000040000fa
:040144004e03000066
:020000040000fa
:040148004e03000062
:020000040000fa
:040208004e030000a1
:020000040000fa
:04020c004e0300009d
:020000040000fa
:040210004e03000099
:020000040000fa
:040214004e03000095
:020000040000fa
:040218004e03000091
:020000040000fa
:04021c004e0300008d
:020000040000fa
:040220004e03000089
:020000040000fa
:040224004e03000085
:020000040000fa
:040228004e03000081
:020000040000fa
:04022c004e0300007d
:020000040000fa
:040230004e03000079
:020000040000fa
:040234004e03000075
:020000040000fa
:040238004e03000071
:020000040000fa
:04023c004e0300006d
:020000040000fa
:040240004e03000069
:020000040000fa
:040244004e03000065
:020000040000fa
:040248004e03000061
:020000040000fa
:04024c004e0300005d
:020000040000fa
:040250004e03000059
:020000040000fa
:040254004e03000055
:020000040000fa
:040258004e03000051
:020000040000fa
:04025c004e0300004d
:020000040000fa
:040260004e03000049
:020000040000fa
:040264004e03000045
:020000040000fa
:040268004e03000041
:020000040000fa
:04026c004e0300003d
:020000040000fa
:040270004e03000039
:020000040000fa
:040274004e03000035
:020000040000fa
:040278004e03000031
:020000040000fa
:04027c004e0300002d
:020000040000fa
:040280004e03000029
:020000040000fa
:040284004e03000025
:020000040000fa
:040288004e03000021
:020000040000fa
:04028c004e0300001d
:020000040000fa
:040290004e03000019
:020000040000fa
:040294004e03000015
:020000040000fa
:040298004e03000011
:020000040000fa
:04029c004e0300000d
:020000040000fa
:0402a0004e03000009
:020000040000fa
:0402a4004e03000005
:020000040000fa
:0402a8004e03000001
:020000040000fa
:0402ac004e030000fd
:020000040000fa
:0402b0004e030000f9
:020000040000fa
:0402b4004e030000f5
:020000040000fa
:0402b8004e030000f1
:020000040000fa
:0402bc004e030000ed
:020000040000fa
:0402c0004e030000e9
:020000040000fa
:0402c4004e030000e5
:020000040000fa
:0402c8004e030000e1
:020000040000fa
:0402cc004e030000dd
:020000040000fa
:0402d0004e030000d9
:020000040000fa
:0402d4004e030000d5
:020000040000fa
:0402d8004e030000d1
:020000040000fa
:0402dc004e030000cd
:020000040000fa
:0402e0004e030000c9
:020000040000fa
:0402e4004e030000c5
:020000040000fa
:0402e8004e030000c1
:020000040000fa
:0402ec004e030000bd
:020000040000fa
:0402f0004e030000b9
:020000040000fa
:0402f4004e030000b5
:020000040000fa
:0402f8004e030000b1
:020000040000fa
:0402fc004e030000ad
:020000040000fa
:040300004e030000a8
:020000040000fa
:040304004e030000a4
:020000040000fa
:040308004e030000a0
:020000040000fa
:04030c004e0300009c
:020000040000fa
:040310004e03000098
:020000040000fa
:040314004e03000094
:020000040000fa
:040318004e03000090
:020000040000fa
:04031c004e0300008c
:020000040000fa
:040320004e03000088
:020000040000fa
:040324004e03000084
:020000040000fa
:040328004e03000080
:020000040000fa
:04032c004e0300007c
:020000040000fa
:040330004e03000078
:020000040000fa
:040334004e03000074
:020000040000fa
:040338004e03000070
:020000040000fa
:04033c004e0300006c
:020000040000fa
:040340004e03000068
:020000040000fa
:040344004e03000064
:020000040000fa
:040348004e03000060
:020000040000fa
:100400006f8020000e7f22000e0188000000000097
:10041000000020000000e000020032000001200087
:1004200020028800140007009e0007000000e00082
:1004300003003a00e03820000100200002003700ed
:100440000000200001002000810f70000100320038
:1004500014000700000020000000e000020032004d
:1004600000000200000000007c0302000000000009
:100470000040da000000fe004440a9000000200017
:100480000000e0000300320000002000a00188000e
:100490004440a800000006008a1f78008b1f7800e7
:1004a0000000060091018800800478000000eb0045
:1004b0001a003700e284440032a0b4009905ba0063
:1004c000e284440032a0b4009906ba00e2844400f9
:1004d00032a0b4000006eb00476fde00fd07b2005b
:1004e000636ce10003003a00ebff07000000eb0043
:1004f0000a003700606ce10004003a00005deb0088
:100500008b05e900fdff3e00040037006168e10053
:10051000010032000086eb000b00070019c7ba008b
:100520001905ba000e04e00003003a000a00e000da
:10053000e0ff3a0000000600fe07b2009e018800be
:100540008a047800f5ff3700395dba008b05e900b1
:100550000c003200295dba008b05e900080032006a
:100560000c00e00003003a00e284440032a0b40032
:10057000f5ff370019ddba008b05e900faff3a00f4
:100580008904e800e184440032a0b40000000600c1
:10059000801f78003400f80000002000a0018800cf
:1005a0000000fa008460a900004080000000e8001c
:1005b000004088000080fa003400f9004f00780005
:1005c00000400600809fbe00829fbe00849fbe0048
:1005d000869fbe003400f80000002000a0018800c3
:1005e0000000fa008400a90010048000610060008f
:1005f0000000e00003003a000021ef000028ef00b7
:1006000012003700000880006102b800004080003e
:100610008000eb0002e823000289b90002017800a3
:100620006003b900860178000301410003e823005c
:100630000300b8000101410082007800040040007e
:100640008580480010408800214088001004800008
:10065000004078006140600011c0b30000c050004d
:10066000614060000080fb006100600012048000b7
:10067000e1ff2f008100610001007000100488007c
:100680000080fa003400f9004f03be004f02be00a4
:100690004f01be004f00be00004006000040da00df
:0806a0000000fe00000005004f
:020000040000fa
:1006a8000000fa00213a8000f08f2f0000806000df
:1006b800203a8800f0ff290060198800c8e2a800e5
:1006c8000421ef00f0e72300100888000021ef0064
:1006d80005e1a8008460a9009460a8008200a90030
:1006e8008400a9009400a8000080fa000000060019
:1006f8000400fa006000b800008fbe00e8ff0700a1
:1007080012002000030020001e0f41005e974900e0
:04071800fbff3700ac
:020000040000fa
:10071c0000080000060000000000000000000000bf
:020000040000fa
:020000040001f9
:0457f8000ff90000a5
:020000040000fa
:020000040001f9
:0457fc007f3f0000eb
:00000001FF
