:020000040000fa
:080000000002040000000000f2
:020000040000fa
:04000800c80200002a
:020000040000fa
:04000c00c802000026
:020000040000fa
:04001000c802000022
:020000040000fa
:04001400c80200001e
:020000040000fa
:04001800c80200001a
:020000040000fa
:04001c00c802000016
:020000040000fa
:04002000c802000012
:020000040000fa
:04002400c80200000e
:020000040000fa
:04002800c80200000a
:020000040000fa
:04002c00c802000006
:020000040000fa
:04003000c802000002
:020000040000fa
:04003400c8020000fe
:020000040000fa
:04003800c8020000fa
:020000040000fa
:04003c00c8020000f6
:020000040000fa
:04004000c8020000f2
:020000040000fa
:04004400c8020000ee
:020000040000fa
:04004800c8020000ea
:020000040000fa
:04004c00c8020000e6
:020000040000fa
:04005000c8020000e2
:020000040000fa
:04005400c8020000de
:020000040000fa
:04005800c8020000da
:020000040000fa
:04005c00c8020000d6
:020000040000fa
:04006000c8020000d2
:020000040000fa
:04006400c8020000ce
:020000040000fa
:04006800c8020000ca
:020000040000fa
:04006c00c8020000c6
:020000040000fa
:04007000c8020000c2
:020000040000fa
:04007400c8020000be
:020000040000fa
:04007800c8020000ba
:020000040000fa
:04007c00c8020000b6
:020000040000fa
:04008000c8020000b2
:020000040000fa
:04008400c8020000ae
:020000040000fa
:04008800c8020000aa
:020000040000fa
:04008c00c8020000a6
:020000040000fa
:04009000c8020000a2
:020000040000fa
:04009400c80200009e
:020000040000fa
:04009800c80200009a
:020000040000fa
:04009c00c802000096
:020000040000fa
:0400a000c802000092
:020000040000fa
:0400a400c80200008e
:020000040000fa
:0400a800c80200008a
:020000040000fa
:0400ac00c802000086
:020000040000fa
:0400b000c802000082
:020000040000fa
:0400b400c80200007e
:020000040000fa
:0400b800c80200007a
:020000040000fa
:0400bc00c802000076
:020000040000fa
:0400c000c802000072
:020000040000fa
:0400c400c80200006e
:020000040000fa
:0400c800c80200006a
:020000040000fa
:0400cc00c802000066
:020000040000fa
:0400d000c802000062
:020000040000fa
:0400d400c80200005e
:020000040000fa
:0400d800c80200005a
:020000040000fa
:0400dc00c802000056
:020000040000fa
:0400e000c802000052
:020000040000fa
:0400e400c80200004e
:020000040000fa
:0400e800c80200004a
:020000040000fa
:0400ec00c802000046
:020000040000fa
:0400f000c802000042
:020000040000fa
:0400f400c80200003e
:020000040000fa
:0400f800c80200003a
:020000040000fa
:0400fc00c802000036
:020000040000fa
:04010000c802000031
:020000040000fa
:04010400c80200002d
:020000040000fa
:04010800c802000029
:020000040000fa
:04010c00c802000025
:020000040000fa
:04011000c802000021
:020000040000fa
:04011400c80200001d
:020000040000fa
:04011800c802000019
:020000040000fa
:04011c00c802000015
:020000040000fa
:04012000c802000011
:020000040000fa
:04012400c80200000d
:020000040000fa
:04012800c802000009
:020000040000fa
:04012c00c802000005
:020000040000fa
:04013000c802000001
:020000040000fa
:04013400c8020000fd
:020000040000fa
:04013800c8020000f9
:020000040000fa
:04013c00c8020000f5
:020000040000fa
:04014000c8020000f1
:020000040000fa
:04014400c8020000ed
:020000040000fa
:04014800c8020000e9
:020000040000fa
:04020800c802000028
:020000040000fa
:04020c00c802000024
:020000040000fa
:04021000c802000020
:020000040000fa
:04021400c80200001c
:020000040000fa
:04021800c802000018
:020000040000fa
:04021c00c802000014
:020000040000fa
:04022000c802000010
:020000040000fa
:04022400c80200000c
:020000040000fa
:04022800c802000008
:020000040000fa
:04022c00c802000004
:020000040000fa
:04023000c802000000
:020000040000fa
:04023400c8020000fc
:020000040000fa
:04023800c8020000f8
:020000040000fa
:04023c00c8020000f4
:020000040000fa
:04024000c8020000f0
:020000040000fa
:04024400c8020000ec
:020000040000fa
:04024800c8020000e8
:020000040000fa
:04024c00c8020000e4
:020000040000fa
:04025000c8020000e0
:020000040000fa
:04025400c8020000dc
:020000040000fa
:04025800c8020000d8
:020000040000fa
:04025c00c8020000d4
:020000040000fa
:04026000c8020000d0
:020000040000fa
:04026400c8020000cc
:020000040000fa
:04026800c8020000c8
:020000040000fa
:04026c00c8020000c4
:020000040000fa
:04027000c8020000c0
:020000040000fa
:04027400c8020000bc
:020000040000fa
:04027800c8020000b8
:020000040000fa
:04027c00c8020000b4
:020000040000fa
:04028000c8020000b0
:020000040000fa
:04028400c8020000ac
:020000040000fa
:04028800c8020000a8
:020000040000fa
:04028c00c8020000a4
:020000040000fa
:04029000c8020000a0
:020000040000fa
:04029400c80200009c
:020000040000fa
:04029800c802000098
:020000040000fa
:04029c00c802000094
:020000040000fa
:0402a000c802000090
:020000040000fa
:0402a400c80200008c
:020000040000fa
:0402a800c802000088
:020000040000fa
:0402ac00c802000084
:020000040000fa
:0402b000c802000080
:020000040000fa
:0402b400c80200007c
:020000040000fa
:0402b800c802000078
:020000040000fa
:0402bc00c802000074
:020000040000fa
:0402c000c802000070
:020000040000fa
:0402c400c80200006c
:020000040000fa
:0402c800c802000068
:020000040000fa
:0402cc00c802000064
:020000040000fa
:0402d000c802000060
:020000040000fa
:0402d400c80200005c
:020000040000fa
:0402d800c802000058
:020000040000fa
:0402dc00c802000054
:020000040000fa
:0402e000c802000050
:020000040000fa
:0402e400c80200004c
:020000040000fa
:0402e800c802000048
:020000040000fa
:0402ec00c802000044
:020000040000fa
:0402f000c802000040
:020000040000fa
:0402f400c80200003c
:020000040000fa
:0402f800c802000038
:020000040000fa
:0402fc00c802000034
:020000040000fa
:04030000c80200002f
:020000040000fa
:04030400c80200002b
:020000040000fa
:04030800c802000027
:020000040000fa
:04030c00c802000023
:020000040000fa
:04031000c80200001f
:020000040000fa
:04031400c80200001b
:020000040000fa
:04031800c802000017
:020000040000fa
:04031c00c802000013
:020000040000fa
:04032000c80200000f
:020000040000fa
:04032400c80200000b
:020000040000fa
:04032800c802000007
:020000040000fa
:04032c00c802000003
:020000040000fa
:04033000c8020000ff
:020000040000fa
:04033400c8020000fb
:020000040000fa
:04033800c8020000f7
:020000040000fa
:04033c00c8020000f3
:020000040000fa
:04034000c8020000ef
:020000040000fa
:04034400c8020000eb
:020000040000fa
:04034800c8020000e7
:020000040000fa
:100400000f8020000e7f22000e01880000000000f7
:10041000000020000000e000020032000001200087
:1004200020028800140007005b0007000000e000c5
:1004300003003a0000002000010020000200370005
:100440000000200001002000810f70000100320038
:1004500014000700000020000000e000020032004d
:100460000000020000000000a205020000000000e1
:100470000040da000000fe004440a9000000200017
:100480000000e0000300320000002000a00188000e
:100490004440a800000006008a1f78008b1f7800e7
:1004a0000000060091018800800478000000eb0045
:1004b0001a003700e284440032a0b4009905ba0063
:1004c000e284440032a0b4009906ba00e2844400f9
:1004d00032a0b4000006eb00476fde00fd07b2005b
:1004e000636ce10003003a00ebff07000000eb0043
:1004f0000a003700606ce10004003a00005deb0088
:100500008b05e900fdff3e00040037006168e10053
:10051000010032000086eb000b00070019c7ba008b
:100520001905ba000e04e00003003a000a00e000da
:10053000e0ff3a0000000600fe07b2009e018800be
:100540008a047800f5ff3700395dba008b05e900b1
:100550000c003200295dba008b05e900080032006a
:100560000c00e00003003a00e284440032a0b40032
:10057000f5ff370019ddba008b05e900faff3a00f4
:100580008904e800e184440032a0b40000000600c1
:0c0590000040da000000fe000000050042
:020000040000fa
:10059c000000fa00213a8000f08f2f0000806000ec
:1005ac00203a8800f0ff290060198800e001200043
:1005bc0000168800c822ef00c422ef000080eb0078
:1005cc00601688000080fa00000006000800fa009f
:1005dc004047980051479800624798006000b80067
:1005ec00008fbe004e4090000080fb008000eb00ae
:1005fc00c001dd00020020005e4090000082fb0084
:10060c008002eb004828dd00c820de00810070006d
:10061c004820dd0000017100818171006e40900066
:10062c000080fb008000eb000000710081807100f5
:10063c00008fbe001e00be000080fa000000060005
:10064c000800fa0020079800310798006000b800f5
:10065c00008fbe004e4090000080fb008000eb003d
:10066c00c001dd00020020005e4090000082fb0013
:10067c008002eb004828dd00c820de0081007000fd
:10068c004820dd0000017100818171006e409000f6
:10069c000080fb008000eb00000071008180710085
:1006ac00008fbe001e00be000080fa000000060095
:1006bc000a00fa00000278003207980043079800fd
:1006cc000040eb00004f78000040eb001047980012
:1006dc000040eb00204798003e009000ce009000b8
:1006ec004008de00004f78003e009000ce009000e5
:1006fc004809dd004800de0000007100c808de007b
:10070c00104798003e009000204798009e407800cb
:10071c00314798001e41900042479800ae4090002f
:10072c005147980063004700840078009048780097
:10073c008100e8000000e800904878008100e800a3
:10074c000000e800904878008100e8000000e80014
:10075c00040078000080fa00000006000600fa0091
:10076c00000f780011079800220798000c01070071
:10077c00000820001e0060000000e00002003200b3
:10078c0014010700010037000b01070000042000d2
:10079c001e0060000000e000020032000d010700a6
:1007ac000100370004010700000220001e00600059
:1007bc000000e000020032000601070001003700d3
:1007cc00fd0007009e007800708060000000e000d3
:1007dc0002003200ff00070001003700f60007009e
:1007ec009e007800688060000000e000020032008b
:1007fc00f800070001003700ef0007009e007800aa
:10080c00648060000000e00002003200f10007008c
:10081c0001003700e80007009e007800628060004d
:10082c000000e00002003200ea000700010037007f
:10083c00e10007009e0078006180600000407800b5
:10084c000004e00002003200e20007000100370063
:10085c00d90007009e009000000820000080600076
:10086c000000e00002003200da000700010037004f
:10087c00d10007009e009000000420000080600062
:10088c000000e00002003200d20007000100370037
:10089c00c90007009e00900000022000008060004c
:1008ac000000e00002003200ca000700010037001f
:1008bc00c10007001e009000700060000000e00006
:1008cc0002003200c300070001003700ba00070025
:1008dc001e009000680060000000e0000200320082
:1008ec00bc00070001003700b30007001e00900099
:1008fc00640060000000e00002003200b500070058
:10090c0001003700ac0007001e0090006200600080
:10091c000000e00002003200ae00070001003700ca
:10092c00a50007001e0090006100600000407800e8
:10093c000004e00002003200a600070001003700ae
:10094c009d000700ae0090000008200000806000b1
:10095c000000e000020032009e000700010037009a
:10096c0095000700ae00900000042000008060009d
:10097c000000e00002003200960007000100370082
:10098c008d000700ae009000000220000080600087
:10099c000000e000020032008e000700010037006a
:1009ac00850007002e009000700060000000e00041
:1009bc000200320087000700010037007e000700ac
:1009cc002e009000680060000000e0000200320081
:1009dc008000070001003700770007002e00900010
:1009ec00640060000000e0000200320079000700a3
:1009fc0001003700700007002e00900062006000bc
:100a0c000000e00002003200720007000100370015
:100a1c00690007002e009000610060000040780023
:100a2c000004e000020032006a00070001003700f9
:100a3c00610007000080fa00000006000400fa00c4
:100a4c00008fbe00f00f2000010020001e1f500080
:100a5c001e97580040052000010020001e01be001a
:100a6c00800f5100818f59000b003e001e00780052
:100a7c006300b90000007800000178001e007800c7
:100a8c006300b90000007800f10f200000805000d6
:100a9c008000eb0031ff0700900a200001002000cd
:100aac001e01be00800f5100818f590010003e00c6
:100abc00b2fa2f00f3ff2f001e0f41005e97490082
:100acc001e0078006300b90000007800f10f2000d0
:100adc0000805000000178001e0078006300b9000f
:100aec0000007800800078000000eb001bff07007e
:100afc0062f52f00f3ff2f001e0f41005e97490097
:100b0c001e0078006300b90000007800f10f20008f
:100b1c0000805000800178001e0078006300b9004e
:100b2c00000078000001eb00830078000bff070049
:100b3c000080fa00000006000400fa0094fe070092
:100b4c006000b800008fbe000b00370017000700d4
:100b5c00160007001500070014000700130007001b
:100b6c001e00be00b5ff070012002000030020008d
:100b7c001e0f41005e974900e00f2000010020008d
:100b8c001e01be00800f5100818f5900efff36000f
:100b9c006000b800008fbe0000000000f6ff3700b8
:100bac00390609000000000000000600793e09002b
:100bbc000000000000000600c422ec000300090045
:100bcc0000000000c422ef00060009000000000035
:100bdc0000000600c422ec0009000900000000001f
:100bec00c422ef000000000000000000000006001e
:020000040000fa
:020000040001f9
:0457f8000ff90000a5
:020000040000fa
:020000040001f9
:0457fc007f3f0000eb
:00000001FF
