:020000040000fa
:080000000002040000000000f2
:020000040000fa
:04000800c80200002a
:020000040000fa
:04000c00c802000026
:020000040000fa
:04001000c802000022
:020000040000fa
:04001400c80200001e
:020000040000fa
:04001800c80200001a
:020000040000fa
:04001c00c802000016
:020000040000fa
:04002000c802000012
:020000040000fa
:04002400c80200000e
:020000040000fa
:04002800c80200000a
:020000040000fa
:04002c00c802000006
:020000040000fa
:04003000c802000002
:020000040000fa
:04003400c8020000fe
:020000040000fa
:04003800c8020000fa
:020000040000fa
:04003c00c8020000f6
:020000040000fa
:04004000c8020000f2
:020000040000fa
:04004400c8020000ee
:020000040000fa
:04004800c8020000ea
:020000040000fa
:04004c00c8020000e6
:020000040000fa
:04005000c8020000e2
:020000040000fa
:04005400c8020000de
:020000040000fa
:04005800c8020000da
:020000040000fa
:04005c00c8020000d6
:020000040000fa
:04006000c8020000d2
:020000040000fa
:04006400c8020000ce
:020000040000fa
:04006800c8020000ca
:020000040000fa
:04006c00c8020000c6
:020000040000fa
:04007000c8020000c2
:020000040000fa
:04007400c8020000be
:020000040000fa
:04007800c8020000ba
:020000040000fa
:04007c00c8020000b6
:020000040000fa
:04008000c8020000b2
:020000040000fa
:04008400c8020000ae
:020000040000fa
:04008800c8020000aa
:020000040000fa
:04008c00c8020000a6
:020000040000fa
:04009000c8020000a2
:020000040000fa
:04009400c80200009e
:020000040000fa
:04009800c80200009a
:020000040000fa
:04009c00c802000096
:020000040000fa
:0400a000c802000092
:020000040000fa
:0400a400c80200008e
:020000040000fa
:0400a800c80200008a
:020000040000fa
:0400ac00c802000086
:020000040000fa
:0400b000c802000082
:020000040000fa
:0400b400c80200007e
:020000040000fa
:0400b800c80200007a
:020000040000fa
:0400bc00c802000076
:020000040000fa
:0400c000c802000072
:020000040000fa
:0400c400c80200006e
:020000040000fa
:0400c800c80200006a
:020000040000fa
:0400cc00c802000066
:020000040000fa
:0400d000c802000062
:020000040000fa
:0400d400c80200005e
:020000040000fa
:0400d800c80200005a
:020000040000fa
:0400dc00c802000056
:020000040000fa
:0400e000c802000052
:020000040000fa
:0400e400c80200004e
:020000040000fa
:0400e800c80200004a
:020000040000fa
:0400ec00c802000046
:020000040000fa
:0400f000c802000042
:020000040000fa
:0400f400c80200003e
:020000040000fa
:0400f800c80200003a
:020000040000fa
:0400fc00c802000036
:020000040000fa
:04010000c802000031
:020000040000fa
:04010400c80200002d
:020000040000fa
:04010800c802000029
:020000040000fa
:04010c00c802000025
:020000040000fa
:04011000c802000021
:020000040000fa
:04011400c80200001d
:020000040000fa
:04011800c802000019
:020000040000fa
:04011c00c802000015
:020000040000fa
:04012000c802000011
:020000040000fa
:04012400c80200000d
:020000040000fa
:04012800c802000009
:020000040000fa
:04012c00c802000005
:020000040000fa
:04013000c802000001
:020000040000fa
:04013400c8020000fd
:020000040000fa
:04013800c8020000f9
:020000040000fa
:04013c00c8020000f5
:020000040000fa
:04014000c8020000f1
:020000040000fa
:04014400c8020000ed
:020000040000fa
:04014800c8020000e9
:020000040000fa
:04020800c802000028
:020000040000fa
:04020c00c802000024
:020000040000fa
:04021000c802000020
:020000040000fa
:04021400c80200001c
:020000040000fa
:04021800c802000018
:020000040000fa
:04021c00c802000014
:020000040000fa
:04022000c802000010
:020000040000fa
:04022400c80200000c
:020000040000fa
:04022800c802000008
:020000040000fa
:04022c00c802000004
:020000040000fa
:04023000c802000000
:020000040000fa
:04023400c8020000fc
:020000040000fa
:04023800c8020000f8
:020000040000fa
:04023c00c8020000f4
:020000040000fa
:04024000c8020000f0
:020000040000fa
:04024400c8020000ec
:020000040000fa
:04024800c8020000e8
:020000040000fa
:04024c00c8020000e4
:020000040000fa
:04025000c8020000e0
:020000040000fa
:04025400c8020000dc
:020000040000fa
:04025800c8020000d8
:020000040000fa
:04025c00c8020000d4
:020000040000fa
:04026000c8020000d0
:020000040000fa
:04026400c8020000cc
:020000040000fa
:04026800c8020000c8
:020000040000fa
:04026c00c8020000c4
:020000040000fa
:04027000c8020000c0
:020000040000fa
:04027400c8020000bc
:020000040000fa
:04027800c8020000b8
:020000040000fa
:04027c00c8020000b4
:020000040000fa
:04028000c8020000b0
:020000040000fa
:04028400c8020000ac
:020000040000fa
:04028800c8020000a8
:020000040000fa
:04028c00c8020000a4
:020000040000fa
:04029000c8020000a0
:020000040000fa
:04029400c80200009c
:020000040000fa
:04029800c802000098
:020000040000fa
:04029c00c802000094
:020000040000fa
:0402a000c802000090
:020000040000fa
:0402a400c80200008c
:020000040000fa
:0402a800c802000088
:020000040000fa
:0402ac00c802000084
:020000040000fa
:0402b000c802000080
:020000040000fa
:0402b400c80200007c
:020000040000fa
:0402b800c802000078
:020000040000fa
:0402bc00c802000074
:020000040000fa
:0402c000c802000070
:020000040000fa
:0402c400c80200006c
:020000040000fa
:0402c800c802000068
:020000040000fa
:0402cc00c802000064
:020000040000fa
:0402d000c802000060
:020000040000fa
:0402d400c80200005c
:020000040000fa
:0402d800c802000058
:020000040000fa
:0402dc00c802000054
:020000040000fa
:0402e000c802000050
:020000040000fa
:0402e400c80200004c
:020000040000fa
:0402e800c802000048
:020000040000fa
:0402ec00c802000044
:020000040000fa
:0402f000c802000040
:020000040000fa
:0402f400c80200003c
:020000040000fa
:0402f800c802000038
:020000040000fa
:0402fc00c802000034
:020000040000fa
:04030000c80200002f
:020000040000fa
:04030400c80200002b
:020000040000fa
:04030800c802000027
:020000040000fa
:04030c00c802000023
:020000040000fa
:04031000c80200001f
:020000040000fa
:04031400c80200001b
:020000040000fa
:04031800c802000017
:020000040000fa
:04031c00c802000013
:020000040000fa
:04032000c80200000f
:020000040000fa
:04032400c80200000b
:020000040000fa
:04032800c802000007
:020000040000fa
:04032c00c802000003
:020000040000fa
:04033000c8020000ff
:020000040000fa
:04033400c8020000fb
:020000040000fa
:04033800c8020000f7
:020000040000fa
:04033c00c8020000f3
:020000040000fa
:04034000c8020000ef
:020000040000fa
:04034400c8020000eb
:020000040000fa
:04034800c8020000e7
:020000040000fa
:100400000f8020000e7f22000e01880000000000f7
:10041000000020000000e000020032000001200087
:1004200020028800140007005b0007000000e000c5
:1004300003003a0000002000010020000200370005
:100440000000200001002000810f70000100320038
:1004500014000700000020000000e000020032004d
:100460000000020000000000b806020000000000ca
:100470000040da000000fe004440a9000000200017
:100480000000e0000300320000002000a00188000e
:100490004440a800000006008a1f78008b1f7800e7
:1004a0000000060091018800800478000000eb0045
:1004b0001a003700e284440032a0b4009905ba0063
:1004c000e284440032a0b4009906ba00e2844400f9
:1004d00032a0b4000006eb00476fde00fd07b2005b
:1004e000636ce10003003a00ebff07000000eb0043
:1004f0000a003700606ce10004003a00005deb0088
:100500008b05e900fdff3e00040037006168e10053
:10051000010032000086eb000b00070019c7ba008b
:100520001905ba000e04e00003003a000a00e000da
:10053000e0ff3a0000000600fe07b2009e018800be
:100540008a047800f5ff3700395dba008b05e900b1
:100550000c003200295dba008b05e900080032006a
:100560000c00e00003003a00e284440032a0b40032
:10057000f5ff370019ddba008b05e900faff3a00f4
:100580008904e800e184440032a0b40000000600c1
:0c0590000040da000000fe000000050042
:020000040000fa
:10059c000000fa00213a8000f08f2f0000806000ec
:1005ac00203a88000080fa00000006000000fa00e3
:1005bc00f0ff290060198800c822ef000080eb00d2
:1005cc00601688000080eb00201688000080fa007e
:1005dc00000006000400fa00004f78001107980094
:1005ec000080eb00601688001e009000e10f5000a8
:1005fc0003003a00cd42a800cd62a90005003700e7
:10060c001e0090000000e00002003a00cd42a9005c
:10061c00cd62a80010c3b3009e40780080cf50007c
:10062c0002003a00cd02a900cce2a90020c3b3001d
:10063c009e40780080cf500005003a00cd22a900e2
:10064c00cd02a900cc62a900cca2a900ccc2a90001
:10065c0030c3b3009e40780080cf500005003a00b4
:10066c00cd22a900cd02a900cce2a900ccc2a900e0
:10067c00cc62a90040c3b3009e40780080cf5000ec
:10068c0004003a00cd02a900cce2a900cc82a9005a
:10069c00cc62a90050c3b3009e40780080cf5000bc
:1006ac0005003a00cd22a900cc82a900cc62a90099
:1006bc00cce2a900ccc2a90060c3b3009e40780074
:1006cc0080cf500006003a00cd22a900cce2a90050
:1006dc00ccc2a900cca2a900cc82a900cc62a900f2
:1006ec0070c3b3009e40780080cf500003003a00e6
:1006fc00cd22a900cd02a900cce2a90080c3b30091
:10070c009e40780080cf500007003a00cd22a9000f
:10071c00cd02a900cce2a900ccc2a900cca2a900b0
:10072c00cc82a900cc62a90090c3b3009e40780093
:10073c0080cf500006003a00cd22a900cd02a900be
:10074c00cce2a900ccc2a900cc82a900cc62a90041
:10075c0000c3b3009e40780080cf500006003a00e2
:10076c00cd22a900cd02a900cce2a900ccc2a900df
:10077c00cca2a900cc82a90010c4b3009e40780082
:10078c0080cf500006003a00cd22a900cd02a9006e
:10079c00cce2a900cc62a900cca2a900cc82a90011
:1007ac0020c6b3009e40780080cf500005003a0070
:1007bc00cce2a900ccc2a900cca2a900cc82a90091
:1007cc00cc62a90030c4b3009e40780080cf5000aa
:1007dc0004003a00cd22a900ccc2a900cca2a900e9
:1007ec00cc82a90040c6b3009e40780080cf500058
:1007fc0005003a00cd02a900cce2a900ccc2a900a8
:10080c00cca2a900cc62a90050c4b3009e407800d1
:10081c0080cf500005003a00cd22a900ccc2a9001f
:10082c00cca2a900cc82a900cc62a90060c4b30000
:10083c009e40780080cf500004003a00cd22a900e1
:10084c00cca2a900cc82a900cc62a9000080fa003d
:10085c00000006000400fa00100798000000eb00ee
:10086c00000f7800020037006f0107001e0fe80030
:10087c001e0090009e007800808f5000faff35001b
:10088c000080fa00000006000000fa008000eb0077
:10089c0000c3b3004fff0700a00f2000edff0700bf
:1008ac008000eb0010c3b3004aff0700a00f20002c
:1008bc00e8ff07008000eb0020c3b30045ff0700f2
:1008cc00a00f2000e3ff07008000eb0030c3b30053
:1008dc0040ff0700a00f2000deff07008000eb00a8
:1008ec0040c3b3003bff0700a00f2000d9ff070057
:1008fc008000eb0050c3b30036ff0700a00f2000b0
:10090c00d4ff07008000eb0060c3b30031ff070089
:10091c00a00f2000cfff07008000eb0070c3b300d6
:10092c002cff0700a00f2000caff07008000eb007f
:10093c0080c3b30027ff0700a00f2000c5ff0700ee
:10094c008000eb0090c3b30022ff0700a00f200033
:10095c00c0ff07008000eb0010c4b3001dff0700b0
:10096c00a00f2000bbff07008000eb0020c6b300e7
:10097c0018ff0700a00f2000b6ff07008000eb0057
:10098c0030c4b30013ff0700a00f2000b1ff070015
:10099c008000eb0040c6b3000eff0700a00f200044
:1009ac00acff07008000eb0050c4b30009ff070048
:1009bc00a00f2000a7ff07008000eb0060c4b3006d
:1009cc0004ff0700a00f2000a2ff07001100200069
:1009dc0000c3b300fffe0700a00f20009dff07001f
:1009ec001100200010c3b300fafe0700a00f200076
:1009fc0098ff07001100200020c3b300f5fe07008c
:100a0c00a00f200093ff07001100200030c3b3009b
:100a1c00f0fe0700a00f20008eff07001100200041
:100a2c0040c3b300ebfe0700a00f200089ff0700b6
:100a3c001100200050c3b300e6fe0700a00f2000f9
:100a4c0084ff07001100200060c3b300e1fe070023
:100a5c00a00f20007fff07001100200070c3b3001f
:100a6c00dcfe0700a00f20007aff07001100200019
:100a7c0080c3b300d7fe0700a00f200075ff07004e
:100a8c001100200090c3b300d2fe0700a00f20007d
:100a9c0070ff07001100200010c4b300cdfe07004a
:100aac00a00f20006bff07001100200020c6b30030
:100abc00c8fe0700a00f200066ff070011002000f1
:100acc0030c4b300c3fe0700a00f200061ff070075
:100adc001100200040c6b300befe0700a00f20008e
:100aec005cff07001100200050c4b300b9fe0700e2
:100afc00a00f200057ff07001100200060c4b300b6
:100b0c00b4fe0700a00f200052ff07000080fa007f
:100b1c00000006000000fa00f0ff290060198800b0
:100b2c000080eb00201688000080eb000016880087
:100b3c006840a8006860a8006bc0a8006ba0a80063
:100b4c000080fa00000006000000fa00cd82a90027
:100b5c00cda2a800cdc2a800cde2a800b20007002b
:100b6c0010168000680060000000e00002003a00ef
:100b7c0010c3b3006a0037001016800064006000d8
:100b8c000000e00002003a0020c3b300640037000c
:100b9c0010168000620060000000e00002003a00c5
:100bac0030c3b3005e003700101680006100600097
:100bbc000000e00002003a0010c4b30058003700f7
:100bcc00cd82a800cda2a900cdc2a800cde2a8007c
:100bdc009500070010168000680060000000e0001f
:100bec0002003a0040c3b3004d00370010168000dd
:100bfc00640060000000e00002003a0050c3b30043
:100c0c004700370010168000620060000000e00012
:100c1c0002003a0060c3b300410037001016800098
:100c2c00610060000000e00002003a0020c6b30042
:100c3c003b003700cd82a800cda2a800cdc2a900f0
:100c4c00cde2a80078000700101680006800600054
:100c5c000000e00002003a0070c3b300300037001f
:100c6c0010168000640060000000e00002003a00f2
:100c7c0080c3b3002a0037001016800062006000a9
:100c8c000000e00002003a0090c3b30024003700db
:100c9c0010168000610060000000e00002003a00c5
:100cac0030c4b3001e003700cd82a800cda2a8002e
:100cbc00cdc2a800cde2a9005b0007001016800091
:100ccc00680060000000e00002003a0050c4b3006d
:100cdc001300370010168000640060000000e00074
:100cec0002003a0000c3b3000d003700101680005c
:100cfc00620060000000e00002003a0060c4b30033
:100d0c000700370010168000610060000000e00052
:100d1c0002003a0040c6b3000100370080c7b300a0
:100d2c000080fa00000006000200fa00004f780074
:100d3c0011479800110020001e40780025fe070086
:100d4c0020002000c3fe07008000eb001e40900036
:100d5c0020fe070020002000befe07000080fa00e5
:100d6c00000006000600fa0009fe07000ffe07004f
:100d7c0068ff07000000eb00000f780080c7b3008d
:100d8c003047980080c7b3004047980080c7b30035
:100d9c0020479800040037006bff0700204798009d
:100dac0020002000abfe0700ae40900080c7b300cf
:100dbc0080cf5000f8ff3200ae40900080c7b300e7
:100dcc0080cf50000c003200630047001e00400032
:100ddc00ae409000014878001e0fe8001e0078001d
:100dec00e20f500004003a00ae40900031479800ea
:100dfc0010002000000f78003e40900011002000f1
:100e0c00f4fd07006000200092fe07004e409000a9
:100e1c008000eb00effd0700dcff3700390609000e
:100e2c000000000000000600793e090000000000f0
:100e3c0000000600c422ec000400090000000000c1
:100e4c00c422ef00050009000000000000000600ad
:100e5c00c422ec000900090000000000c422ef00cd
:0c0e6c0002000900000000000000060069
:020000040000fa
:020000040001f9
:0457f8000ff90000a5
:020000040000fa
:020000040001f9
:0457fc007f3f0000eb
:00000001FF
